{
  "_format": "hh-sol-artifact-1",
  "contractName": "Simple404",
  "sourceName": "contracts/token/Simple404.sol",
  "abi": [
    {
      "inputs": [
        {
          "internalType": "string",
          "name": "name_",
          "type": "string"
        },
        {
          "internalType": "string",
          "name": "symbol_",
          "type": "string"
        },
        {
          "internalType": "uint8",
          "name": "decimals_",
          "type": "uint8"
        },
        {
          "internalType": "uint256",
          "name": "maxTotalSupplyERC721_",
          "type": "uint256"
        },
        {
          "internalType": "address",
          "name": "initialOwner_",
          "type": "address"
        },
        {
          "internalType": "address",
          "name": "initialMintRecipient_",
          "type": "address"
        }
      ],
      "stateMutability": "nonpayable",
      "type": "constructor"
    },
    {
      "inputs": [],
      "name": "AlreadyExists",
      "type": "error"
    },
    {
      "inputs": [],
      "name": "DecimalsTooLow",
      "type": "error"
    },
    {
      "inputs": [],
      "name": "InsufficientAllowance",
      "type": "error"
    },
    {
      "inputs": [],
      "name": "InvalidApproval",
      "type": "error"
    },
    {
      "inputs": [],
      "name": "InvalidExemption",
      "type": "error"
    },
    {
      "inputs": [],
      "name": "InvalidOperator",
      "type": "error"
    },
    {
      "inputs": [],
      "name": "InvalidRecipient",
      "type": "error"
    },
    {
      "inputs": [],
      "name": "InvalidSender",
      "type": "error"
    },
    {
      "inputs": [],
      "name": "InvalidSigner",
      "type": "error"
    },
    {
      "inputs": [],
      "name": "InvalidSpender",
      "type": "error"
    },
    {
      "inputs": [],
      "name": "InvalidTokenId",
      "type": "error"
    },
    {
      "inputs": [],
      "name": "MintLimitReached",
      "type": "error"
    },
    {
      "inputs": [],
      "name": "NotFound",
      "type": "error"
    },
    {
      "inputs": [
        {
          "internalType": "address",
          "name": "owner",
          "type": "address"
        }
      ],
      "name": "OwnableInvalidOwner",
      "type": "error"
    },
    {
      "inputs": [
        {
          "internalType": "address",
          "name": "account",
          "type": "address"
        }
      ],
      "name": "OwnableUnauthorizedAccount",
      "type": "error"
    },
    {
      "inputs": [],
      "name": "OwnedIndexOverflow",
      "type": "error"
    },
    {
      "inputs": [],
      "name": "PermitDeadlineExpired",
      "type": "error"
    },
    {
      "inputs": [],
      "name": "QueueEmpty",
      "type": "error"
    },
    {
      "inputs": [],
      "name": "QueueFull",
      "type": "error"
    },
    {
      "inputs": [],
      "name": "QueueOutOfBounds",
      "type": "error"
    },
    {
      "inputs": [],
      "name": "RecipientIsERC721TransferExempt",
      "type": "error"
    },
    {
      "inputs": [],
      "name": "Unauthorized",
      "type": "error"
    },
    {
      "inputs": [],
      "name": "UnsafeRecipient",
      "type": "error"
    },
    {
      "anonymous": false,
      "inputs": [
        {
          "indexed": true,
          "internalType": "address",
          "name": "owner",
          "type": "address"
        },
        {
          "indexed": true,
          "internalType": "address",
          "name": "spender",
          "type": "address"
        },
        {
          "indexed": false,
          "internalType": "uint256",
          "name": "value",
          "type": "uint256"
        }
      ],
      "name": "Approval",
      "type": "event"
    },
    {
      "anonymous": false,
      "inputs": [
        {
          "indexed": true,
          "internalType": "address",
          "name": "owner",
          "type": "address"
        },
        {
          "indexed": true,
          "internalType": "address",
          "name": "spender",
          "type": "address"
        },
        {
          "indexed": true,
          "internalType": "uint256",
          "name": "id",
          "type": "uint256"
        }
      ],
      "name": "Approval",
      "type": "event"
    },
    {
      "anonymous": false,
      "inputs": [
        {
          "indexed": true,
          "internalType": "address",
          "name": "owner",
          "type": "address"
        },
        {
          "indexed": true,
          "internalType": "address",
          "name": "operator",
          "type": "address"
        },
        {
          "indexed": false,
          "internalType": "bool",
          "name": "approved",
          "type": "bool"
        }
      ],
      "name": "ApprovalForAll",
      "type": "event"
    },
    {
      "anonymous": false,
      "inputs": [
        {
          "indexed": true,
          "internalType": "address",
          "name": "previousOwner",
          "type": "address"
        },
        {
          "indexed": true,
          "internalType": "address",
          "name": "newOwner",
          "type": "address"
        }
      ],
      "name": "OwnershipTransferred",
      "type": "event"
    },
    {
      "anonymous": false,
      "inputs": [
        {
          "indexed": true,
          "internalType": "address",
          "name": "from",
          "type": "address"
        },
        {
          "indexed": true,
          "internalType": "address",
          "name": "to",
          "type": "address"
        },
        {
          "indexed": false,
          "internalType": "uint256",
          "name": "amount",
          "type": "uint256"
        }
      ],
      "name": "Transfer",
      "type": "event"
    },
    {
      "anonymous": false,
      "inputs": [
        {
          "indexed": true,
          "internalType": "address",
          "name": "from",
          "type": "address"
        },
        {
          "indexed": true,
          "internalType": "address",
          "name": "to",
          "type": "address"
        },
        {
          "indexed": true,
          "internalType": "uint256",
          "name": "id",
          "type": "uint256"
        }
      ],
      "name": "Transfer",
      "type": "event"
    },
    {
      "inputs": [],
      "name": "DOMAIN_SEPARATOR",
      "outputs": [
        {
          "internalType": "bytes32",
          "name": "",
          "type": "bytes32"
        }
      ],
      "stateMutability": "view",
      "type": "function"
    },
    {
      "inputs": [],
      "name": "ID_ENCODING_PREFIX",
      "outputs": [
        {
          "internalType": "uint256",
          "name": "",
          "type": "uint256"
        }
      ],
      "stateMutability": "view",
      "type": "function"
    },
    {
      "inputs": [
        {
          "internalType": "address",
          "name": "",
          "type": "address"
        },
        {
          "internalType": "address",
          "name": "",
          "type": "address"
        }
      ],
      "name": "allowance",
      "outputs": [
        {
          "internalType": "uint256",
          "name": "",
          "type": "uint256"
        }
      ],
      "stateMutability": "view",
      "type": "function"
    },
    {
      "inputs": [
        {
          "internalType": "address",
          "name": "spender_",
          "type": "address"
        },
        {
          "internalType": "uint256",
          "name": "valueOrId_",
          "type": "uint256"
        }
      ],
      "name": "approve",
      "outputs": [
        {
          "internalType": "bool",
          "name": "",
          "type": "bool"
        }
      ],
      "stateMutability": "nonpayable",
      "type": "function"
    },
    {
      "inputs": [
        {
          "internalType": "address",
          "name": "",
          "type": "address"
        }
      ],
      "name": "balanceOf",
      "outputs": [
        {
          "internalType": "uint256",
          "name": "",
          "type": "uint256"
        }
      ],
      "stateMutability": "view",
      "type": "function"
    },
    {
      "inputs": [],
      "name": "baseTokenURI",
      "outputs": [
        {
          "internalType": "string",
          "name": "",
          "type": "string"
        }
      ],
      "stateMutability": "view",
      "type": "function"
    },
    {
      "inputs": [],
      "name": "decimals",
      "outputs": [
        {
          "internalType": "uint8",
          "name": "",
          "type": "uint8"
        }
      ],
      "stateMutability": "view",
      "type": "function"
    },
    {
      "inputs": [
        {
          "internalType": "address",
          "name": "spender_",
          "type": "address"
        },
        {
          "internalType": "uint256",
          "name": "value_",
          "type": "uint256"
        }
      ],
      "name": "erc20Approve",
      "outputs": [
        {
          "internalType": "bool",
          "name": "",
          "type": "bool"
        }
      ],
      "stateMutability": "nonpayable",
      "type": "function"
    },
    {
      "inputs": [
        {
          "internalType": "address",
          "name": "owner_",
          "type": "address"
        }
      ],
      "name": "erc20BalanceOf",
      "outputs": [
        {
          "internalType": "uint256",
          "name": "",
          "type": "uint256"
        }
      ],
      "stateMutability": "view",
      "type": "function"
    },
    {
      "inputs": [],
      "name": "erc20TotalSupply",
      "outputs": [
        {
          "internalType": "uint256",
          "name": "",
          "type": "uint256"
        }
      ],
      "stateMutability": "view",
      "type": "function"
    },
    {
      "inputs": [
        {
          "internalType": "address",
          "name": "from_",
          "type": "address"
        },
        {
          "internalType": "address",
          "name": "to_",
          "type": "address"
        },
        {
          "internalType": "uint256",
          "name": "value_",
          "type": "uint256"
        }
      ],
      "name": "erc20TransferFrom",
      "outputs": [
        {
          "internalType": "bool",
          "name": "",
          "type": "bool"
        }
      ],
      "stateMutability": "nonpayable",
      "type": "function"
    },
    {
      "inputs": [
        {
          "internalType": "address",
          "name": "spender_",
          "type": "address"
        },
        {
          "internalType": "uint256",
          "name": "id_",
          "type": "uint256"
        }
      ],
      "name": "erc721Approve",
      "outputs": [],
      "stateMutability": "nonpayable",
      "type": "function"
    },
    {
      "inputs": [
        {
          "internalType": "address",
          "name": "owner_",
          "type": "address"
        }
      ],
      "name": "erc721BalanceOf",
      "outputs": [
        {
          "internalType": "uint256",
          "name": "",
          "type": "uint256"
        }
      ],
      "stateMutability": "view",
      "type": "function"
    },
    {
      "inputs": [],
      "name": "erc721TotalSupply",
      "outputs": [
        {
          "internalType": "uint256",
          "name": "",
          "type": "uint256"
        }
      ],
      "stateMutability": "view",
      "type": "function"
    },
    {
      "inputs": [
        {
          "internalType": "address",
          "name": "target_",
          "type": "address"
        }
      ],
      "name": "erc721TransferExempt",
      "outputs": [
        {
          "internalType": "bool",
          "name": "",
          "type": "bool"
        }
      ],
      "stateMutability": "view",
      "type": "function"
    },
    {
      "inputs": [
        {
          "internalType": "address",
          "name": "from_",
          "type": "address"
        },
        {
          "internalType": "address",
          "name": "to_",
          "type": "address"
        },
        {
          "internalType": "uint256",
          "name": "id_",
          "type": "uint256"
        }
      ],
      "name": "erc721TransferFrom",
      "outputs": [],
      "stateMutability": "nonpayable",
      "type": "function"
    },
    {
      "inputs": [
        {
          "internalType": "uint256",
          "name": "",
          "type": "uint256"
        }
      ],
      "name": "getApproved",
      "outputs": [
        {
          "internalType": "address",
          "name": "",
          "type": "address"
        }
      ],
      "stateMutability": "view",
      "type": "function"
    },
    {
      "inputs": [],
      "name": "getERC721QueueLength",
      "outputs": [
        {
          "internalType": "uint256",
          "name": "",
          "type": "uint256"
        }
      ],
      "stateMutability": "view",
      "type": "function"
    },
    {
      "inputs": [
        {
          "internalType": "uint256",
          "name": "start_",
          "type": "uint256"
        },
        {
          "internalType": "uint256",
          "name": "count_",
          "type": "uint256"
        }
      ],
      "name": "getERC721TokensInQueue",
      "outputs": [
        {
          "internalType": "uint256[]",
          "name": "",
          "type": "uint256[]"
        }
      ],
      "stateMutability": "view",
      "type": "function"
    },
    {
      "inputs": [
        {
          "internalType": "address",
          "name": "",
          "type": "address"
        },
        {
          "internalType": "address",
          "name": "",
          "type": "address"
        }
      ],
      "name": "isApprovedForAll",
      "outputs": [
        {
          "internalType": "bool",
          "name": "",
          "type": "bool"
        }
      ],
      "stateMutability": "view",
      "type": "function"
    },
    {
      "inputs": [],
      "name": "minted",
      "outputs": [
        {
          "internalType": "uint256",
          "name": "",
          "type": "uint256"
        }
      ],
      "stateMutability": "view",
      "type": "function"
    },
    {
      "inputs": [],
      "name": "name",
      "outputs": [
        {
          "internalType": "string",
          "name": "",
          "type": "string"
        }
      ],
      "stateMutability": "view",
      "type": "function"
    },
    {
      "inputs": [
        {
          "internalType": "address",
          "name": "",
          "type": "address"
        }
      ],
      "name": "nonces",
      "outputs": [
        {
          "internalType": "uint256",
          "name": "",
          "type": "uint256"
        }
      ],
      "stateMutability": "view",
      "type": "function"
    },
    {
      "inputs": [
        {
          "internalType": "address",
          "name": "owner_",
          "type": "address"
        }
      ],
      "name": "owned",
      "outputs": [
        {
          "internalType": "uint256[]",
          "name": "",
          "type": "uint256[]"
        }
      ],
      "stateMutability": "view",
      "type": "function"
    },
    {
      "inputs": [],
      "name": "owner",
      "outputs": [
        {
          "internalType": "address",
          "name": "",
          "type": "address"
        }
      ],
      "stateMutability": "view",
      "type": "function"
    },
    {
      "inputs": [
        {
          "internalType": "uint256",
          "name": "id_",
          "type": "uint256"
        }
      ],
      "name": "ownerOf",
      "outputs": [
        {
          "internalType": "address",
          "name": "erc721Owner",
          "type": "address"
        }
      ],
      "stateMutability": "view",
      "type": "function"
    },
    {
      "inputs": [
        {
          "internalType": "address",
          "name": "owner_",
          "type": "address"
        },
        {
          "internalType": "address",
          "name": "spender_",
          "type": "address"
        },
        {
          "internalType": "uint256",
          "name": "value_",
          "type": "uint256"
        },
        {
          "internalType": "uint256",
          "name": "deadline_",
          "type": "uint256"
        },
        {
          "internalType": "uint8",
          "name": "v_",
          "type": "uint8"
        },
        {
          "internalType": "bytes32",
          "name": "r_",
          "type": "bytes32"
        },
        {
          "internalType": "bytes32",
          "name": "s_",
          "type": "bytes32"
        }
      ],
      "name": "permit",
      "outputs": [],
      "stateMutability": "nonpayable",
      "type": "function"
    },
    {
      "inputs": [],
      "name": "renounceOwnership",
      "outputs": [],
      "stateMutability": "nonpayable",
      "type": "function"
    },
    {
      "inputs": [
        {
          "internalType": "address",
          "name": "from_",
          "type": "address"
        },
        {
          "internalType": "address",
          "name": "to_",
          "type": "address"
        },
        {
          "internalType": "uint256",
          "name": "id_",
          "type": "uint256"
        }
      ],
      "name": "safeTransferFrom",
      "outputs": [],
      "stateMutability": "nonpayable",
      "type": "function"
    },
    {
      "inputs": [
        {
          "internalType": "address",
          "name": "from_",
          "type": "address"
        },
        {
          "internalType": "address",
          "name": "to_",
          "type": "address"
        },
        {
          "internalType": "uint256",
          "name": "id_",
          "type": "uint256"
        },
        {
          "internalType": "bytes",
          "name": "data_",
          "type": "bytes"
        }
      ],
      "name": "safeTransferFrom",
      "outputs": [],
      "stateMutability": "nonpayable",
      "type": "function"
    },
    {
      "inputs": [
        {
          "internalType": "address",
          "name": "operator_",
          "type": "address"
        },
        {
          "internalType": "bool",
          "name": "approved_",
          "type": "bool"
        }
      ],
      "name": "setApprovalForAll",
      "outputs": [],
      "stateMutability": "nonpayable",
      "type": "function"
    },
    {
      "inputs": [
        {
          "internalType": "address",
          "name": "account_",
          "type": "address"
        },
        {
          "internalType": "bool",
          "name": "value_",
          "type": "bool"
        }
      ],
      "name": "setERC721TransferExempt",
      "outputs": [],
      "stateMutability": "nonpayable",
      "type": "function"
    },
    {
      "inputs": [
        {
          "internalType": "bool",
          "name": "state_",
          "type": "bool"
        }
      ],
      "name": "setSelfERC721TransferExempt",
      "outputs": [],
      "stateMutability": "nonpayable",
      "type": "function"
    },
    {
      "inputs": [
        {
          "internalType": "string",
          "name": "_tokenURI",
          "type": "string"
        }
      ],
      "name": "setTokenURI",
      "outputs": [],
      "stateMutability": "nonpayable",
      "type": "function"
    },
    {
      "inputs": [
        {
          "internalType": "bytes4",
          "name": "interfaceId",
          "type": "bytes4"
        }
      ],
      "name": "supportsInterface",
      "outputs": [
        {
          "internalType": "bool",
          "name": "",
          "type": "bool"
        }
      ],
      "stateMutability": "view",
      "type": "function"
    },
    {
      "inputs": [],
      "name": "symbol",
      "outputs": [
        {
          "internalType": "string",
          "name": "",
          "type": "string"
        }
      ],
      "stateMutability": "view",
      "type": "function"
    },
    {
      "inputs": [
        {
          "internalType": "uint256",
          "name": "id",
          "type": "uint256"
        }
      ],
      "name": "tokenURI",
      "outputs": [
        {
          "internalType": "string",
          "name": "",
          "type": "string"
        }
      ],
      "stateMutability": "view",
      "type": "function"
    },
    {
      "inputs": [],
      "name": "totalSupply",
      "outputs": [
        {
          "internalType": "uint256",
          "name": "",
          "type": "uint256"
        }
      ],
      "stateMutability": "view",
      "type": "function"
    },
    {
      "inputs": [
        {
          "internalType": "address",
          "name": "to_",
          "type": "address"
        },
        {
          "internalType": "uint256",
          "name": "value_",
          "type": "uint256"
        }
      ],
      "name": "transfer",
      "outputs": [
        {
          "internalType": "bool",
          "name": "",
          "type": "bool"
        }
      ],
      "stateMutability": "nonpayable",
      "type": "function"
    },
    {
      "inputs": [
        {
          "internalType": "address",
          "name": "from_",
          "type": "address"
        },
        {
          "internalType": "address",
          "name": "to_",
          "type": "address"
        },
        {
          "internalType": "uint256",
          "name": "valueOrId_",
          "type": "uint256"
        }
      ],
      "name": "transferFrom",
      "outputs": [
        {
          "internalType": "bool",
          "name": "",
          "type": "bool"
        }
      ],
      "stateMutability": "nonpayable",
      "type": "function"
    },
    {
      "inputs": [
        {
          "internalType": "address",
          "name": "newOwner",
          "type": "address"
        }
      ],
      "name": "transferOwnership",
      "outputs": [],
      "stateMutability": "nonpayable",
      "type": "function"
    },
    {
      "inputs": [],
      "name": "units",
      "outputs": [
        {
          "internalType": "uint256",
          "name": "",
          "type": "uint256"
        }
      ],
      "stateMutability": "view",
      "type": "function"
    }
  ],
  "bytecode": "0x6101006040527f80000000000000000000000000000000000000000000000000000000000000006010553480156200003657600080fd5b5060405162006ddf38038062006ddf83398181016040528101906200005c919062001996565b85858584600073ffffffffffffffffffffffffffffffffffffffff168173ffffffffffffffffffffffffffffffffffffffff1603620000d55760006040517f1e4fbdf7000000000000000000000000000000000000000000000000000000008152600401620000cc919062001a81565b60405180910390fd5b620000e681620001d260201b60201c565b508260039081620000f8919062001cdf565b5081600490816200010a919062001cdf565b5060128160ff1610156200014a576040517f98790fd500000000000000000000000000000000000000000000000000000000815260040160405180910390fd5b8060ff1660808160ff1681525050608051600a62000169919062001f49565b60a081815250504660c08181525050620001886200029660201b60201c565b60e08181525050505050620001a58160016200032660201b60201c565b620001c68160a05185620001ba919062001f9a565b6200041860201b60201c565b505050505050620022db565b60008060009054906101000a900473ffffffffffffffffffffffffffffffffffffffff169050816000806101000a81548173ffffffffffffffffffffffffffffffffffffffff021916908373ffffffffffffffffffffffffffffffffffffffff1602179055508173ffffffffffffffffffffffffffffffffffffffff168173ffffffffffffffffffffffffffffffffffffffff167f8be0079c531659141344cd1fd0a4f28419497f9722a3daafe3b4186f6b6457e060405160405180910390a35050565b60007f8b73c3c69bb8fe3d512ecc4cf759cc79239f7b179b0ffacaa9a75d522b39400f6003604051620002ca919062002094565b60405180910390207fc89efdaa54c0f20c7adf612882df0950f5a951637e0307cdcb4c672f298b8bc646306040516020016200030b959493929190620020d9565b60405160208183030381529060405280519060200120905090565b600073ffffffffffffffffffffffffffffffffffffffff168273ffffffffffffffffffffffffffffffffffffffff16036200038d576040517fa41e3d3f00000000000000000000000000000000000000000000000000000000815260040160405180910390fd5b8015620003ab57620003a5826200050260201b60201c565b620003bd565b620003bc826200054560201b60201c565b5b80600d60008473ffffffffffffffffffffffffffffffffffffffff1673ffffffffffffffffffffffffffffffffffffffff16815260200190815260200160002060006101000a81548160ff0219169083151502179055505050565b600073ffffffffffffffffffffffffffffffffffffffff168273ffffffffffffffffffffffffffffffffffffffff16036200047f576040517f9c8d2cd200000000000000000000000000000000000000000000000000000000815260040160405180910390fd5b7f800000000000000000000000000000000000000000000000000000000000000081600554620004b0919062002136565b1115620004e9576040517f303b682f00000000000000000000000000000000000000000000000000000000815260040160405180910390fd5b620004fd60008383620005ba60201b60201c565b505050565b600062000515826200093960201b60201c565b905060005b81811015620005405762000534836200098560201b60201c565b8060010190506200051a565b505050565b600060a0516200055b8362000acd60201b60201c565b620005679190620021a0565b905060006200057c836200093960201b60201c565b905060005b81836200058f9190620021d8565b811015620005b457620005a88462000b1660201b60201c565b80600101905062000581565b50505050565b600080620005ce8562000acd60201b60201c565b90506000620005e38562000acd60201b60201c565b9050620005f886868662000ceb60201b60201c565b60006200060b8762000e5360201b60201c565b90506000620006208762000e5360201b60201c565b90508180156200062d5750805b6200092a578115620006d957600060a051846200064b9190620021a0565b60a051600760008b73ffffffffffffffffffffffffffffffffffffffff1673ffffffffffffffffffffffffffffffffffffffff168152602001908152602001600020546200069a9190620021a0565b620006a69190620021d8565b905060005b81811015620006d157620006c58962000b1660201b60201c565b806001019050620006ab565b505062000929565b80156200078057600060a051600760008b73ffffffffffffffffffffffffffffffffffffffff1673ffffffffffffffffffffffffffffffffffffffff16815260200190815260200160002054620007319190620021a0565b60a05186620007419190620021a0565b6200074d9190620021d8565b905060005b8181101562000778576200076c8a6200098560201b60201c565b80600101905062000752565b505062000928565b600060a05187620007929190620021a0565b905060005b81811015620008795760006001600c60008d73ffffffffffffffffffffffffffffffffffffffff1673ffffffffffffffffffffffffffffffffffffffff16815260200190815260200160002080549050620007f39190620021d8565b90506000600c60008d73ffffffffffffffffffffffffffffffffffffffff1673ffffffffffffffffffffffffffffffffffffffff16815260200190815260200160002082815481106200084b576200084a62002213565b5b906000526020600020015490506200086b8c8c8362000ee060201b60201c565b826001019250505062000797565b508060a0516200088f8b62000acd60201b60201c565b6200089b9190620021a0565b60a05187620008ab9190620021a0565b620008b79190620021d8565b1115620008d057620008cf896200098560201b60201c565b5b8060a05185620008e19190620021a0565b60a051620008f58b62000acd60201b60201c565b620009019190620021a0565b6200090d9190620021d8565b11156200092657620009258862000b1660201b60201c565b5b505b5b5b60019450505050509392505050565b6000600c60008373ffffffffffffffffffffffffffffffffffffffff1673ffffffffffffffffffffffffffffffffffffffff168152602001908152602001600020805490509050919050565b600073ffffffffffffffffffffffffffffffffffffffff168173ffffffffffffffffffffffffffffffffffffffff1603620009ec576040517fddb5de5e00000000000000000000000000000000000000000000000000000000815260040160405180910390fd5b6000600c60008373ffffffffffffffffffffffffffffffffffffffff1673ffffffffffffffffffffffffffffffffffffffff1681526020019081526020016000206001600c60008573ffffffffffffffffffffffffffffffffffffffff1673ffffffffffffffffffffffffffffffffffffffff1681526020019081526020016000208054905062000a7e9190620021d8565b8154811062000a925762000a9162002213565b5b9060005260206000200154905062000ab38260008362000ee060201b60201c565b62000ac98160016200128960201b90919060201c565b5050565b6000600760008373ffffffffffffffffffffffffffffffffffffffff1673ffffffffffffffffffffffffffffffffffffffff168152602001908152602001600020549050919050565b600073ffffffffffffffffffffffffffffffffffffffff168173ffffffffffffffffffffffffffffffffffffffff160362000b7d576040517f9c8d2cd200000000000000000000000000000000000000000000000000000000815260040160405180910390fd5b600062000b916001620013ad60201b60201c565b62000bb05762000ba860016200141d60201b60201c565b905062000c57565b60066000815462000bc19062002242565b919050819055507fffffffffffffffffffffffffffffffffffffffffffffffffffffffffffffffff6006540362000c24576040517f303b682f00000000000000000000000000000000000000000000000000000000815260040160405180910390fd5b6006547f800000000000000000000000000000000000000000000000000000000000000062000c54919062002136565b90505b600062000c6a826200158260201b60201c565b9050600073ffffffffffffffffffffffffffffffffffffffff168173ffffffffffffffffffffffffffffffffffffffff161462000cd3576040517f23369fa600000000000000000000000000000000000000000000000000000000815260040160405180910390fd5b62000ce681848462000ee060201b60201c565b505050565b600073ffffffffffffffffffffffffffffffffffffffff168373ffffffffffffffffffffffffffffffffffffffff160362000d4157806005600082825462000d34919062002136565b9250508190555062000d9a565b80600760008573ffffffffffffffffffffffffffffffffffffffff1673ffffffffffffffffffffffffffffffffffffffff168152602001908152602001600020600082825462000d929190620021d8565b925050819055505b80600760008473ffffffffffffffffffffffffffffffffffffffff1673ffffffffffffffffffffffffffffffffffffffff168152602001908152602001600020600082825401925050819055508173ffffffffffffffffffffffffffffffffffffffff168373ffffffffffffffffffffffffffffffffffffffff167fddf252ad1be2c89b69c2b068fc378daa952ba7f163c4a11628f55a4df523b3ef8360405162000e4691906200228f565b60405180910390a3505050565b60008073ffffffffffffffffffffffffffffffffffffffff168273ffffffffffffffffffffffffffffffffffffffff16148062000ed95750600d60008373ffffffffffffffffffffffffffffffffffffffff1673ffffffffffffffffffffffffffffffffffffffff16815260200190815260200160002060009054906101000a900460ff165b9050919050565b600073ffffffffffffffffffffffffffffffffffffffff168373ffffffffffffffffffffffffffffffffffffffff1614620010fc576009600082815260200190815260200160002060006101000a81549073ffffffffffffffffffffffffffffffffffffffff02191690556000600c60008573ffffffffffffffffffffffffffffffffffffffff1673ffffffffffffffffffffffffffffffffffffffff1681526020019081526020016000206001600c60008773ffffffffffffffffffffffffffffffffffffffff1673ffffffffffffffffffffffffffffffffffffffff1681526020019081526020016000208054905062000fdd9190620021d8565b8154811062000ff15762000ff062002213565b5b90600052602060002001549050818114620010925760006200101983620015ba60201b60201c565b905081600c60008773ffffffffffffffffffffffffffffffffffffffff1673ffffffffffffffffffffffffffffffffffffffff168152602001908152602001600020828154811062001070576200106f62002213565b5b9060005260206000200181905550620010908282620015df60201b60201c565b505b600c60008573ffffffffffffffffffffffffffffffffffffffff1673ffffffffffffffffffffffffffffffffffffffff168152602001908152602001600020805480620010e457620010e3620022ac565b5b60019003818190600052602060002001600090559055505b600073ffffffffffffffffffffffffffffffffffffffff168273ffffffffffffffffffffffffffffffffffffffff16146200121157620011438183620016b360201b60201c565b600c60008373ffffffffffffffffffffffffffffffffffffffff1673ffffffffffffffffffffffffffffffffffffffff1681526020019081526020016000208190806001815401808255809150506001900390600052602060002001600090919091909150556200120b816001600c60008673ffffffffffffffffffffffffffffffffffffffff1673ffffffffffffffffffffffffffffffffffffffff16815260200190815260200160002080549050620011ff9190620021d8565b620015df60201b60201c565b62001229565b600b6000828152602001908152602001600020600090555b808273ffffffffffffffffffffffffffffffffffffffff168473ffffffffffffffffffffffffffffffffffffffff167fddf252ad1be2c89b69c2b068fc378daa952ba7f163c4a11628f55a4df523b3ef60405160405180910390a4505050565b600060018360000160009054906101000a90046fffffffffffffffffffffffffffffffff160390508260000160109054906101000a90046fffffffffffffffffffffffffffffffff166fffffffffffffffffffffffffffffffff16816fffffffffffffffffffffffffffffffff16036200132f576040517f8acb5f2700000000000000000000000000000000000000000000000000000000815260040160405180910390fd5b81836001016000836fffffffffffffffffffffffffffffffff166fffffffffffffffffffffffffffffffff16815260200190815260200160002081905550808360000160006101000a8154816fffffffffffffffffffffffffffffffff02191690836fffffffffffffffffffffffffffffffff160217905550505050565b60008160000160009054906101000a90046fffffffffffffffffffffffffffffffff166fffffffffffffffffffffffffffffffff168260000160109054906101000a90046fffffffffffffffffffffffffffffffff166fffffffffffffffffffffffffffffffff16149050919050565b6000808260000160109054906101000a90046fffffffffffffffffffffffffffffffff1690508260000160009054906101000a90046fffffffffffffffffffffffffffffffff166fffffffffffffffffffffffffffffffff16816fffffffffffffffffffffffffffffffff1603620014c1576040517f75e52f4f00000000000000000000000000000000000000000000000000000000815260040160405180910390fd5b80600190039050826001016000826fffffffffffffffffffffffffffffffff166fffffffffffffffffffffffffffffffff168152602001908152602001600020549150826001016000826fffffffffffffffffffffffffffffffff166fffffffffffffffffffffffffffffffff16815260200190815260200160002060009055808360000160106101000a8154816fffffffffffffffffffffffffffffffff02191690836fffffffffffffffffffffffffffffffff16021790555050919050565b600080600b600084815260200190815260200160002054905073ffffffffffffffffffffffffffffffffffffffff8116915050919050565b600080600b60008481526020019081526020016000205490508060a01c915050919050565b6000600b600084815260200190815260200160002054905060a07fffffffffffffffffffffffff0000000000000000000000000000000000000000901c82111562001656576040517ffcb3438c00000000000000000000000000000000000000000000000000000000815260040160405180910390fd5b7fffffffffffffffffffffffff00000000000000000000000000000000000000008260a01b1673ffffffffffffffffffffffffffffffffffffffff821601905080600b600085815260200190815260200160002081905550505050565b6000600b600084815260200190815260200160002054905073ffffffffffffffffffffffffffffffffffffffff82167fffffffffffffffffffffffff0000000000000000000000000000000000000000821601905080600b600085815260200190815260200160002081905550505050565b6000604051905090565b600080fd5b600080fd5b600080fd5b600080fd5b6000601f19601f8301169050919050565b7f4e487b7100000000000000000000000000000000000000000000000000000000600052604160045260246000fd5b6200178e8262001743565b810181811067ffffffffffffffff82111715620017b057620017af62001754565b5b80604052505050565b6000620017c562001725565b9050620017d3828262001783565b919050565b600067ffffffffffffffff821115620017f657620017f562001754565b5b620018018262001743565b9050602081019050919050565b60005b838110156200182e57808201518184015260208101905062001811565b60008484015250505050565b6000620018516200184b84620017d8565b620017b9565b90508281526020810184848401111562001870576200186f6200173e565b5b6200187d8482856200180e565b509392505050565b600082601f8301126200189d576200189c62001739565b5b8151620018af8482602086016200183a565b91505092915050565b600060ff82169050919050565b620018d081620018b8565b8114620018dc57600080fd5b50565b600081519050620018f081620018c5565b92915050565b6000819050919050565b6200190b81620018f6565b81146200191757600080fd5b50565b6000815190506200192b8162001900565b92915050565b600073ffffffffffffffffffffffffffffffffffffffff82169050919050565b60006200195e8262001931565b9050919050565b620019708162001951565b81146200197c57600080fd5b50565b600081519050620019908162001965565b92915050565b60008060008060008060c08789031215620019b657620019b56200172f565b5b600087015167ffffffffffffffff811115620019d757620019d662001734565b5b620019e589828a0162001885565b965050602087015167ffffffffffffffff81111562001a095762001a0862001734565b5b62001a1789828a0162001885565b955050604062001a2a89828a01620018df565b945050606062001a3d89828a016200191a565b935050608062001a5089828a016200197f565b92505060a062001a6389828a016200197f565b9150509295509295509295565b62001a7b8162001951565b82525050565b600060208201905062001a98600083018462001a70565b92915050565b600081519050919050565b7f4e487b7100000000000000000000000000000000000000000000000000000000600052602260045260246000fd5b6000600282049050600182168062001af157607f821691505b60208210810362001b075762001b0662001aa9565b5b50919050565b60008190508160005260206000209050919050565b60006020601f8301049050919050565b600082821b905092915050565b60006008830262001b717fffffffffffffffffffffffffffffffffffffffffffffffffffffffffffffffff8262001b32565b62001b7d868362001b32565b95508019841693508086168417925050509392505050565b6000819050919050565b600062001bc062001bba62001bb484620018f6565b62001b95565b620018f6565b9050919050565b6000819050919050565b62001bdc8362001b9f565b62001bf462001beb8262001bc7565b84845462001b3f565b825550505050565b600090565b62001c0b62001bfc565b62001c1881848462001bd1565b505050565b5b8181101562001c405762001c3460008262001c01565b60018101905062001c1e565b5050565b601f82111562001c8f5762001c598162001b0d565b62001c648462001b22565b8101602085101562001c74578190505b62001c8c62001c838562001b22565b83018262001c1d565b50505b505050565b600082821c905092915050565b600062001cb46000198460080262001c94565b1980831691505092915050565b600062001ccf838362001ca1565b9150826002028217905092915050565b62001cea8262001a9e565b67ffffffffffffffff81111562001d065762001d0562001754565b5b62001d12825462001ad8565b62001d1f82828562001c44565b600060209050601f83116001811462001d57576000841562001d42578287015190505b62001d4e858262001cc1565b86555062001dbe565b601f19841662001d678662001b0d565b60005b8281101562001d915784890151825560018201915060208501945060208101905062001d6a565b8683101562001db1578489015162001dad601f89168262001ca1565b8355505b6001600288020188555050505b505050505050565b7f4e487b7100000000000000000000000000000000000000000000000000000000600052601160045260246000fd5b60008160011c9050919050565b6000808291508390505b600185111562001e545780860481111562001e2c5762001e2b62001dc6565b5b600185161562001e3c5780820291505b808102905062001e4c8562001df5565b945062001e0c565b94509492505050565b60008262001e6f576001905062001f42565b8162001e7f576000905062001f42565b816001811462001e98576002811462001ea35762001ed9565b600191505062001f42565b60ff84111562001eb85762001eb762001dc6565b5b8360020a91508482111562001ed25762001ed162001dc6565b5b5062001f42565b5060208310610133831016604e8410600b841016171562001f135782820a90508381111562001f0d5762001f0c62001dc6565b5b62001f42565b62001f22848484600162001e02565b9250905081840481111562001f3c5762001f3b62001dc6565b5b81810290505b9392505050565b600062001f5682620018f6565b915062001f6383620018b8565b925062001f927fffffffffffffffffffffffffffffffffffffffffffffffffffffffffffffffff848462001e5d565b905092915050565b600062001fa782620018f6565b915062001fb483620018f6565b925082820262001fc481620018f6565b9150828204841483151762001fde5762001fdd62001dc6565b5b5092915050565b600081905092915050565b60008190508160005260206000209050919050565b60008154620020148162001ad8565b62002020818662001fe5565b945060018216600081146200203e576001811462002054576200208b565b60ff19831686528115158202860193506200208b565b6200205f8562001ff0565b60005b83811015620020835781548189015260018201915060208101905062002062565b838801955050505b50505092915050565b6000620020a2828462002005565b915081905092915050565b6000819050919050565b620020c281620020ad565b82525050565b620020d381620018f6565b82525050565b600060a082019050620020f06000830188620020b7565b620020ff6020830187620020b7565b6200210e6040830186620020b7565b6200211d6060830185620020c8565b6200212c608083018462001a70565b9695505050505050565b60006200214382620018f6565b91506200215083620018f6565b92508282019050808211156200216b576200216a62001dc6565b5b92915050565b7f4e487b7100000000000000000000000000000000000000000000000000000000600052601260045260246000fd5b6000620021ad82620018f6565b9150620021ba83620018f6565b925082620021cd57620021cc62002171565b5b828204905092915050565b6000620021e582620018f6565b9150620021f283620018f6565b92508282039050818111156200220d576200220c62001dc6565b5b92915050565b7f4e487b7100000000000000000000000000000000000000000000000000000000600052603260045260246000fd5b60006200224f82620018f6565b91507fffffffffffffffffffffffffffffffffffffffffffffffffffffffffffffffff820362002284576200228362001dc6565b5b600182019050919050565b6000602082019050620022a66000830184620020c8565b92915050565b7f4e487b7100000000000000000000000000000000000000000000000000000000600052603160045260246000fd5b60805160a05160c05160e051614a7d620023626000396000610bbf01526000610b8b015260008181610f5001528181611d74015281816124e901528181612515015281816125ba01528181612625015281816126850152818161278b015281816127bf01528181612806015281816128320152612f1b01526000610b650152614a7d6000f3fe608060405234801561001057600080fd5b506004361061025e5760003560e01c80638da5cb5b11610146578063c87b56dd116100c3578063dd63769911610087578063dd6376991461079b578063dfabc033146107b7578063e0df5b6f146107d3578063e985e9c5146107ef578063f2fde38b1461081f578063f780bc1a1461083b5761025e565b8063c87b56dd146106d1578063d505accf14610701578063d547cfb71461071d578063d96ca0b91461073b578063dd62ed3e1461076b5761025e565b8063b1ab93171161010a578063b1ab93171461061b578063b3f9ea341461064b578063b88d4fde1461067b578063c5ab3ba614610697578063c6e672b9146106b55761025e565b80638da5cb5b1461057557806395d89b4114610593578063976a8435146105b1578063a22cb465146105cf578063a9059cbb146105eb5761025e565b80633644e515116101df5780636e8f624b116101a35780636e8f624b146104b357806370a08231146104d1578063715018a6146105015780637ecebe001461050b57806389fb4c661461053b5780638a696e50146105595761025e565b80633644e515146103fb57806342842e0e146104195780634d966072146104355780634f02c420146104655780636352211e146104835761025e565b806309674eb01161022657806309674eb01461034157806309f0ef651461035f57806318160ddd1461038f57806323b872dd146103ad578063313ce567146103dd5761025e565b806301ffc9a71461026357806302519da31461029357806306fdde03146102c3578063081812fc146102e1578063095ea7b314610311575b600080fd5b61027d60048036038101906102789190613890565b61086b565b60405161028a91906138d8565b60405180910390f35b6102ad60048036038101906102a89190613951565b61093d565b6040516102ba9190613997565b60405180910390f35b6102cb610986565b6040516102d89190613a42565b60405180910390f35b6102fb60048036038101906102f69190613a90565b610a14565b6040516103089190613acc565b60405180910390f35b61032b60048036038101906103269190613ae7565b610a47565b60405161033891906138d8565b60405180910390f35b610349610a82565b6040516103569190613997565b60405180910390f35b61037960048036038101906103749190613951565b610a93565b60405161038691906138d8565b60405180910390f35b610397610b1f565b6040516103a49190613997565b60405180910390f35b6103c760048036038101906103c29190613b27565b610b25565b6040516103d491906138d8565b60405180910390f35b6103e5610b63565b6040516103f29190613b96565b60405180910390f35b610403610b87565b6040516104109190613bca565b60405180910390f35b610433600480360381019061042e9190613b27565b610be4565b005b61044f600480360381019061044a9190613ae7565b610c04565b60405161045c91906138d8565b60405180910390f35b61046d610d5b565b60405161047a9190613997565b60405180910390f35b61049d60048036038101906104989190613a90565b610d61565b6040516104aa9190613acc565b60405180910390f35b6104bb610e18565b6040516104c89190613997565b60405180910390f35b6104eb60048036038101906104e69190613951565b610e3c565b6040516104f89190613997565b60405180910390f35b610509610e54565b005b61052560048036038101906105209190613951565b610e68565b6040516105329190613997565b60405180910390f35b610543610e80565b6040516105509190613997565b60405180910390f35b610573600480360381019061056e9190613c11565b610e8a565b005b61057d610e97565b60405161058a9190613acc565b60405180910390f35b61059b610ec0565b6040516105a89190613a42565b60405180910390f35b6105b9610f4e565b6040516105c69190613997565b60405180910390f35b6105e960048036038101906105e49190613c3e565b610f72565b005b61060560048036038101906106009190613ae7565b6110d5565b60405161061291906138d8565b60405180910390f35b61063560048036038101906106309190613951565b61114f565b6040516106429190613d3c565b60405180910390f35b61066560048036038101906106609190613951565b6111e6565b6040516106729190613997565b60405180910390f35b61069560048036038101906106909190613e93565b611232565b005b61069f6113a8565b6040516106ac9190613997565b60405180910390f35b6106cf60048036038101906106ca9190613c3e565b6113b2565b005b6106eb60048036038101906106e69190613a90565b6113c8565b6040516106f89190613a42565b60405180910390f35b61071b60048036038101906107169190613f6e565b611438565b005b6107256117c5565b6040516107329190613a42565b60405180910390f35b61075560048036038101906107509190613b27565b611853565b60405161076291906138d8565b60405180910390f35b61078560048036038101906107809190614010565b611a6a565b6040516107929190613997565b60405180910390f35b6107b560048036038101906107b09190613b27565b611a8f565b005b6107d160048036038101906107cc9190613ae7565b611da8565b005b6107ed60048036038101906107e891906140f1565b611f61565b005b61080960048036038101906108049190614010565b611f7c565b60405161081691906138d8565b60405180910390f35b61083960048036038101906108349190613951565b611fab565b005b6108556004803603810190610850919061413a565b612031565b6040516108629190613d3c565b60405180910390f35b60007fcaf91ff5000000000000000000000000000000000000000000000000000000007bffffffffffffffffffffffffffffffffffffffffffffffffffffffff1916827bffffffffffffffffffffffffffffffffffffffffffffffffffffffff1916148061093657507f01ffc9a7000000000000000000000000000000000000000000000000000000007bffffffffffffffffffffffffffffffffffffffffffffffffffffffff1916827bffffffffffffffffffffffffffffffffffffffffffffffffffffffff1916145b9050919050565b6000600760008373ffffffffffffffffffffffffffffffffffffffff1673ffffffffffffffffffffffffffffffffffffffff168152602001908152602001600020549050919050565b60038054610993906141a9565b80601f01602080910402602001604051908101604052809291908181526020018280546109bf906141a9565b8015610a0c5780601f106109e157610100808354040283529160200191610a0c565b820191906000526020600020905b8154815290600101906020018083116109ef57829003601f168201915b505050505081565b60096020528060005260406000206000915054906101000a900473ffffffffffffffffffffffffffffffffffffffff1681565b6000610a52826120ed565b15610a6657610a618383611da8565b610a77565b610a708383610c04565b9050610a7c565b600190505b92915050565b6000610a8e6001612145565b905090565b60008073ffffffffffffffffffffffffffffffffffffffff168273ffffffffffffffffffffffffffffffffffffffff161480610b185750600d60008373ffffffffffffffffffffffffffffffffffffffff1673ffffffffffffffffffffffffffffffffffffffff16815260200190815260200160002060009054906101000a900460ff165b9050919050565b60055481565b6000610b30826120ed565b15610b4557610b40848484611a8f565b610b57565b610b50848484611853565b9050610b5c565b600190505b9392505050565b7f000000000000000000000000000000000000000000000000000000000000000081565b60007f00000000000000000000000000000000000000000000000000000000000000004614610bbd57610bb86121a3565b610bdf565b7f00000000000000000000000000000000000000000000000000000000000000005b905090565b610bff83838360405180602001604052806000815250611232565b505050565b60008073ffffffffffffffffffffffffffffffffffffffff168373ffffffffffffffffffffffffffffffffffffffff1603610c6b576040517f5461585f00000000000000000000000000000000000000000000000000000000815260040160405180910390fd5b81600860003373ffffffffffffffffffffffffffffffffffffffff1673ffffffffffffffffffffffffffffffffffffffff16815260200190815260200160002060008573ffffffffffffffffffffffffffffffffffffffff1673ffffffffffffffffffffffffffffffffffffffff168152602001908152602001600020819055508273ffffffffffffffffffffffffffffffffffffffff163373ffffffffffffffffffffffffffffffffffffffff167f8c5be1e5ebec7d5bd14f71427d1e84f3dd0314c0f7b2291e5b200ac8c7c3b92584604051610d499190613997565b60405180910390a36001905092915050565b60065481565b6000610d6c8261222f565b9050610d77826120ed565b610dad576040517f3f6cc76800000000000000000000000000000000000000000000000000000000815260040160405180910390fd5b600073ffffffffffffffffffffffffffffffffffffffff168173ffffffffffffffffffffffffffffffffffffffff1603610e13576040517fc5723b5100000000000000000000000000000000000000000000000000000000815260040160405180910390fd5b919050565b7f800000000000000000000000000000000000000000000000000000000000000081565b60076020528060005260406000206000915090505481565b610e5c612267565b610e6660006122ee565b565b600e6020528060005260406000206000915090505481565b6000600554905090565b610e9433826123b2565b50565b60008060009054906101000a900473ffffffffffffffffffffffffffffffffffffffff16905090565b60048054610ecd906141a9565b80601f0160208091040260200160405190810160405280929190818152602001828054610ef9906141a9565b8015610f465780601f10610f1b57610100808354040283529160200191610f46565b820191906000526020600020905b815481529060010190602001808311610f2957829003601f168201915b505050505081565b7f000000000000000000000000000000000000000000000000000000000000000081565b600073ffffffffffffffffffffffffffffffffffffffff168273ffffffffffffffffffffffffffffffffffffffff1603610fd8576040517fccea9e6f00000000000000000000000000000000000000000000000000000000815260040160405180910390fd5b80600a60003373ffffffffffffffffffffffffffffffffffffffff1673ffffffffffffffffffffffffffffffffffffffff16815260200190815260200160002060008473ffffffffffffffffffffffffffffffffffffffff1673ffffffffffffffffffffffffffffffffffffffff16815260200190815260200160002060006101000a81548160ff0219169083151502179055508173ffffffffffffffffffffffffffffffffffffffff163373ffffffffffffffffffffffffffffffffffffffff167f17307eab39ab6107e8899845ad3d59bd9653f200f220920489ca2b5937696c31836040516110c991906138d8565b60405180910390a35050565b60008073ffffffffffffffffffffffffffffffffffffffff168373ffffffffffffffffffffffffffffffffffffffff160361113c576040517f9c8d2cd200000000000000000000000000000000000000000000000000000000815260040160405180910390fd5b611147338484612491565b905092915050565b6060600c60008373ffffffffffffffffffffffffffffffffffffffff1673ffffffffffffffffffffffffffffffffffffffff1681526020019081526020016000208054806020026020016040519081016040528092919081815260200182805480156111da57602002820191906000526020600020905b8154815260200190600101908083116111c6575b50505050509050919050565b6000600c60008373ffffffffffffffffffffffffffffffffffffffff1673ffffffffffffffffffffffffffffffffffffffff168152602001908152602001600020805490509050919050565b61123b826120ed565b611271576040517f3f6cc76800000000000000000000000000000000000000000000000000000000815260040160405180910390fd5b61127c848484610b25565b5060008373ffffffffffffffffffffffffffffffffffffffff163b1415801561136b575063150b7a0260e01b7bffffffffffffffffffffffffffffffffffffffffffffffffffffffff19168373ffffffffffffffffffffffffffffffffffffffff1663150b7a02338786866040518563ffffffff1660e01b8152600401611306949392919061422f565b6020604051808303816000875af1158015611325573d6000803e3d6000fd5b505050506040513d601f19601f820116820180604052508101906113499190614290565b7bffffffffffffffffffffffffffffffffffffffffffffffffffffffff191614155b156113a2576040517f3da6393100000000000000000000000000000000000000000000000000000000815260040160405180910390fd5b50505050565b6000600654905090565b6113ba612267565b6113c482826123b2565b5050565b60606000600f80546113d9906141a9565b9050111561142057600f6113f9601054846113f491906142ec565b612891565b60405160200161140a92919061441a565b6040516020818303038152906040529050611433565b6040518060200160405280600081525090505b919050565b42841015611472576040517f05787bdf00000000000000000000000000000000000000000000000000000000815260040160405180910390fd5b61147b856120ed565b156114b2576040517f1f3e0de800000000000000000000000000000000000000000000000000000000815260040160405180910390fd5b600073ffffffffffffffffffffffffffffffffffffffff168673ffffffffffffffffffffffffffffffffffffffff1603611518576040517f5461585f00000000000000000000000000000000000000000000000000000000815260040160405180910390fd5b60006001611524610b87565b7f6e71edae12b1b97f4d1f60370fef10105fa2faae0126114a169c64845d6126c98a8a8a600e60008f73ffffffffffffffffffffffffffffffffffffffff1673ffffffffffffffffffffffffffffffffffffffff1681526020019081526020016000206000815480929190600101919050558b6040516020016115ac9695949392919061444d565b604051602081830303815290604052805190602001206040516020016115d392919061451b565b60405160208183030381529060405280519060200120858585604051600081526020016040526040516116099493929190614552565b6020604051602081039080840390855afa15801561162b573d6000803e3d6000fd5b505050602060405103519050600073ffffffffffffffffffffffffffffffffffffffff168173ffffffffffffffffffffffffffffffffffffffff16148061169e57508773ffffffffffffffffffffffffffffffffffffffff168173ffffffffffffffffffffffffffffffffffffffff1614155b156116d5576040517f815e1d6400000000000000000000000000000000000000000000000000000000815260040160405180910390fd5b85600860008373ffffffffffffffffffffffffffffffffffffffff1673ffffffffffffffffffffffffffffffffffffffff16815260200190815260200160002060008973ffffffffffffffffffffffffffffffffffffffff1673ffffffffffffffffffffffffffffffffffffffff16815260200190815260200160002081905550508573ffffffffffffffffffffffffffffffffffffffff168773ffffffffffffffffffffffffffffffffffffffff167f8c5be1e5ebec7d5bd14f71427d1e84f3dd0314c0f7b2291e5b200ac8c7c3b925876040516117b49190613997565b60405180910390a350505050505050565b600f80546117d2906141a9565b80601f01602080910402602001604051908101604052809291908181526020018280546117fe906141a9565b801561184b5780601f106118205761010080835404028352916020019161184b565b820191906000526020600020905b81548152906001019060200180831161182e57829003601f168201915b505050505081565b60008073ffffffffffffffffffffffffffffffffffffffff168473ffffffffffffffffffffffffffffffffffffffff16036118ba576040517fddb5de5e00000000000000000000000000000000000000000000000000000000815260040160405180910390fd5b600073ffffffffffffffffffffffffffffffffffffffff168373ffffffffffffffffffffffffffffffffffffffff1603611920576040517f9c8d2cd200000000000000000000000000000000000000000000000000000000815260040160405180910390fd5b6000600860008673ffffffffffffffffffffffffffffffffffffffff1673ffffffffffffffffffffffffffffffffffffffff16815260200190815260200160002060003373ffffffffffffffffffffffffffffffffffffffff1673ffffffffffffffffffffffffffffffffffffffff1681526020019081526020016000205490507fffffffffffffffffffffffffffffffffffffffffffffffffffffffffffffffff8114611a555782816119d491906142ec565b600860008773ffffffffffffffffffffffffffffffffffffffff1673ffffffffffffffffffffffffffffffffffffffff16815260200190815260200160002060003373ffffffffffffffffffffffffffffffffffffffff1673ffffffffffffffffffffffffffffffffffffffff168152602001908152602001600020819055505b611a60858585612491565b9150509392505050565b6008602052816000526040600020602052806000526040600020600091509150505481565b600073ffffffffffffffffffffffffffffffffffffffff168373ffffffffffffffffffffffffffffffffffffffff1603611af5576040517fddb5de5e00000000000000000000000000000000000000000000000000000000815260040160405180910390fd5b600073ffffffffffffffffffffffffffffffffffffffff168273ffffffffffffffffffffffffffffffffffffffff1603611b5b576040517f9c8d2cd200000000000000000000000000000000000000000000000000000000815260040160405180910390fd5b611b648161222f565b73ffffffffffffffffffffffffffffffffffffffff168373ffffffffffffffffffffffffffffffffffffffff1614611bc8576040517f82b4290000000000000000000000000000000000000000000000000000000000815260040160405180910390fd5b8273ffffffffffffffffffffffffffffffffffffffff163373ffffffffffffffffffffffffffffffffffffffff1614158015611c8b5750600a60008473ffffffffffffffffffffffffffffffffffffffff1673ffffffffffffffffffffffffffffffffffffffff16815260200190815260200160002060003373ffffffffffffffffffffffffffffffffffffffff1673ffffffffffffffffffffffffffffffffffffffff16815260200190815260200160002060009054906101000a900460ff16155b8015611cf657506009600082815260200190815260200160002060009054906101000a900473ffffffffffffffffffffffffffffffffffffffff1673ffffffffffffffffffffffffffffffffffffffff163373ffffffffffffffffffffffffffffffffffffffff1614155b15611d2d576040517f82b4290000000000000000000000000000000000000000000000000000000000815260040160405180910390fd5b611d3682610a93565b15611d6d576040517f5ce7539700000000000000000000000000000000000000000000000000000000815260040160405180910390fd5b611d9883837f000000000000000000000000000000000000000000000000000000000000000061295f565b611da3838383612abf565b505050565b6000611db38261222f565b90508073ffffffffffffffffffffffffffffffffffffffff163373ffffffffffffffffffffffffffffffffffffffff1614158015611e785750600a60008273ffffffffffffffffffffffffffffffffffffffff1673ffffffffffffffffffffffffffffffffffffffff16815260200190815260200160002060003373ffffffffffffffffffffffffffffffffffffffff1673ffffffffffffffffffffffffffffffffffffffff16815260200190815260200160002060009054906101000a900460ff16155b15611eaf576040517f82b4290000000000000000000000000000000000000000000000000000000000815260040160405180910390fd5b826009600084815260200190815260200160002060006101000a81548173ffffffffffffffffffffffffffffffffffffffff021916908373ffffffffffffffffffffffffffffffffffffffff160217905550818373ffffffffffffffffffffffffffffffffffffffff168273ffffffffffffffffffffffffffffffffffffffff167f8c5be1e5ebec7d5bd14f71427d1e84f3dd0314c0f7b2291e5b200ac8c7c3b92560405160405180910390a4505050565b611f69612267565b80600f9081611f78919061472e565b5050565b600a6020528160005260406000206020528060005260406000206000915091509054906101000a900460ff1681565b611fb3612267565b600073ffffffffffffffffffffffffffffffffffffffff168173ffffffffffffffffffffffffffffffffffffffff16036120255760006040517f1e4fbdf700000000000000000000000000000000000000000000000000000000815260040161201c9190613acc565b60405180910390fd5b61202e816122ee565b50565b606060008267ffffffffffffffff81111561204f5761204e613d68565b5b60405190808252806020026020018201604052801561207d5781602001602082028036833780820191505090505b50905060008490505b83856120929190614800565b8110156120e2576120ad816001612e3790919063ffffffff16565b8286836120ba91906142ec565b815181106120cb576120ca614834565b5b602002602001018181525050806001019050612086565b508091505092915050565b60007f80000000000000000000000000000000000000000000000000000000000000008211801561213e57507fffffffffffffffffffffffffffffffffffffffffffffffffffffffffffffffff8214155b9050919050565b60008160000160009054906101000a90046fffffffffffffffffffffffffffffffff168260000160109054906101000a90046fffffffffffffffffffffffffffffffff16036fffffffffffffffffffffffffffffffff169050919050565b60007f8b73c3c69bb8fe3d512ecc4cf759cc79239f7b179b0ffacaa9a75d522b39400f60036040516121d59190614906565b60405180910390207fc89efdaa54c0f20c7adf612882df0950f5a951637e0307cdcb4c672f298b8bc6463060405160200161221495949392919061491d565b60405160208183030381529060405280519060200120905090565b600080600b600084815260200190815260200160002054905073ffffffffffffffffffffffffffffffffffffffff8116915050919050565b61226f612ede565b73ffffffffffffffffffffffffffffffffffffffff1661228d610e97565b73ffffffffffffffffffffffffffffffffffffffff16146122ec576122b0612ede565b6040517f118cdaa70000000000000000000000000000000000000000000000000000000081526004016122e39190613acc565b60405180910390fd5b565b60008060009054906101000a900473ffffffffffffffffffffffffffffffffffffffff169050816000806101000a81548173ffffffffffffffffffffffffffffffffffffffff021916908373ffffffffffffffffffffffffffffffffffffffff1602179055508173ffffffffffffffffffffffffffffffffffffffff168173ffffffffffffffffffffffffffffffffffffffff167f8be0079c531659141344cd1fd0a4f28419497f9722a3daafe3b4186f6b6457e060405160405180910390a35050565b600073ffffffffffffffffffffffffffffffffffffffff168273ffffffffffffffffffffffffffffffffffffffff1603612418576040517fa41e3d3f00000000000000000000000000000000000000000000000000000000815260040160405180910390fd5b801561242c5761242782612ee6565b612436565b61243582612f17565b5b80600d60008473ffffffffffffffffffffffffffffffffffffffff1673ffffffffffffffffffffffffffffffffffffffff16815260200190815260200160002060006101000a81548160ff0219169083151502179055505050565b60008061249d8561093d565b905060006124aa8561093d565b90506124b786868661295f565b60006124c287610a93565b905060006124cf87610a93565b90508180156124db5750805b6128825781156125b05760007f000000000000000000000000000000000000000000000000000000000000000084612513919061499f565b7f0000000000000000000000000000000000000000000000000000000000000000600760008b73ffffffffffffffffffffffffffffffffffffffff1673ffffffffffffffffffffffffffffffffffffffff1681526020019081526020016000205461257e919061499f565b61258891906142ec565b905060005b818110156125a95761259e89612f8c565b80600101905061258d565b5050612881565b80156126815760007f0000000000000000000000000000000000000000000000000000000000000000600760008b73ffffffffffffffffffffffffffffffffffffffff1673ffffffffffffffffffffffffffffffffffffffff16815260200190815260200160002054612623919061499f565b7f00000000000000000000000000000000000000000000000000000000000000008661264f919061499f565b61265991906142ec565b905060005b8181101561267a5761266f8a613138565b80600101905061265e565b5050612880565b60007f0000000000000000000000000000000000000000000000000000000000000000876126af919061499f565b905060005b818110156127875760006001600c60008d73ffffffffffffffffffffffffffffffffffffffff1673ffffffffffffffffffffffffffffffffffffffff1681526020019081526020016000208054905061270d91906142ec565b90506000600c60008d73ffffffffffffffffffffffffffffffffffffffff1673ffffffffffffffffffffffffffffffffffffffff168152602001908152602001600020828154811061276257612761614834565b5b9060005260206000200154905061277a8c8c83612abf565b82600101925050506126b4565b50807f00000000000000000000000000000000000000000000000000000000000000006127b38b61093d565b6127bd919061499f565b7f0000000000000000000000000000000000000000000000000000000000000000876127e9919061499f565b6127f391906142ec565b11156128035761280289613138565b5b807f000000000000000000000000000000000000000000000000000000000000000085612830919061499f565b7f000000000000000000000000000000000000000000000000000000000000000061285a8b61093d565b612864919061499f565b61286e91906142ec565b111561287e5761287d88612f8c565b5b505b5b5b60019450505050509392505050565b6060600060016128a084613270565b01905060008167ffffffffffffffff8111156128bf576128be613d68565b5b6040519080825280601f01601f1916602001820160405280156128f15781602001600182028036833780820191505090505b509050600082602001820190505b600115612954578080600190039150507f3031323334353637383961626364656600000000000000000000000000000000600a86061a8153600a858161294857612947614970565b5b049450600085036128ff575b819350505050919050565b600073ffffffffffffffffffffffffffffffffffffffff168373ffffffffffffffffffffffffffffffffffffffff16036129b15780600560008282546129a59190614800565b92505081905550612a08565b80600760008573ffffffffffffffffffffffffffffffffffffffff1673ffffffffffffffffffffffffffffffffffffffff1681526020019081526020016000206000828254612a0091906142ec565b925050819055505b80600760008473ffffffffffffffffffffffffffffffffffffffff1673ffffffffffffffffffffffffffffffffffffffff168152602001908152602001600020600082825401925050819055508173ffffffffffffffffffffffffffffffffffffffff168373ffffffffffffffffffffffffffffffffffffffff167fddf252ad1be2c89b69c2b068fc378daa952ba7f163c4a11628f55a4df523b3ef83604051612ab29190613997565b60405180910390a3505050565b600073ffffffffffffffffffffffffffffffffffffffff168373ffffffffffffffffffffffffffffffffffffffff1614612cbe576009600082815260200190815260200160002060006101000a81549073ffffffffffffffffffffffffffffffffffffffff02191690556000600c60008573ffffffffffffffffffffffffffffffffffffffff1673ffffffffffffffffffffffffffffffffffffffff1681526020019081526020016000206001600c60008773ffffffffffffffffffffffffffffffffffffffff1673ffffffffffffffffffffffffffffffffffffffff16815260200190815260200160002080549050612bb991906142ec565b81548110612bca57612bc9614834565b5b90600052602060002001549050818114612c57576000612be9836133c3565b905081600c60008773ffffffffffffffffffffffffffffffffffffffff1673ffffffffffffffffffffffffffffffffffffffff1681526020019081526020016000208281548110612c3d57612c3c614834565b5b9060005260206000200181905550612c5582826133e8565b505b600c60008573ffffffffffffffffffffffffffffffffffffffff1673ffffffffffffffffffffffffffffffffffffffff168152602001908152602001600020805480612ca657612ca56149d0565b5b60019003818190600052602060002001600090559055505b600073ffffffffffffffffffffffffffffffffffffffff168273ffffffffffffffffffffffffffffffffffffffff1614612dbf57612cfc81836134bb565b600c60008373ffffffffffffffffffffffffffffffffffffffff1673ffffffffffffffffffffffffffffffffffffffff168152602001908152602001600020819080600181540180825580915050600190039060005260206000200160009091909190915055612dba816001600c60008673ffffffffffffffffffffffffffffffffffffffff1673ffffffffffffffffffffffffffffffffffffffff16815260200190815260200160002080549050612db591906142ec565b6133e8565b612dd7565b600b6000828152602001908152602001600020600090555b808273ffffffffffffffffffffffffffffffffffffffff168473ffffffffffffffffffffffffffffffffffffffff167fddf252ad1be2c89b69c2b068fc378daa952ba7f163c4a11628f55a4df523b3ef60405160405180910390a4505050565b6000612e4283612145565b8210612e7a576040517f580821e700000000000000000000000000000000000000000000000000000000815260040160405180910390fd5b826001016000838560000160009054906101000a90046fffffffffffffffffffffffffffffffff16016fffffffffffffffffffffffffffffffff166fffffffffffffffffffffffffffffffff16815260200190815260200160002054905092915050565b600033905090565b6000612ef1826111e6565b905060005b81811015612f1257612f0783613138565b806001019050612ef6565b505050565b60007f0000000000000000000000000000000000000000000000000000000000000000612f438361093d565b612f4d919061499f565b90506000612f5a836111e6565b905060005b8183612f6b91906142ec565b811015612f8657612f7b84612f8c565b806001019050612f5f565b50505050565b600073ffffffffffffffffffffffffffffffffffffffff168173ffffffffffffffffffffffffffffffffffffffff1603612ff2576040517f9c8d2cd200000000000000000000000000000000000000000000000000000000815260040160405180910390fd5b6000612ffe600161352d565b6130135761300c600161359d565b90506130b5565b600660008154613022906149ff565b919050819055507fffffffffffffffffffffffffffffffffffffffffffffffffffffffffffffffff60065403613084576040517f303b682f00000000000000000000000000000000000000000000000000000000815260040160405180910390fd5b6006547f80000000000000000000000000000000000000000000000000000000000000006130b29190614800565b90505b60006130c08261222f565b9050600073ffffffffffffffffffffffffffffffffffffffff168173ffffffffffffffffffffffffffffffffffffffff1614613128576040517f23369fa600000000000000000000000000000000000000000000000000000000815260040160405180910390fd5b613133818484612abf565b505050565b600073ffffffffffffffffffffffffffffffffffffffff168173ffffffffffffffffffffffffffffffffffffffff160361319e576040517fddb5de5e00000000000000000000000000000000000000000000000000000000815260040160405180910390fd5b6000600c60008373ffffffffffffffffffffffffffffffffffffffff1673ffffffffffffffffffffffffffffffffffffffff1681526020019081526020016000206001600c60008573ffffffffffffffffffffffffffffffffffffffff1673ffffffffffffffffffffffffffffffffffffffff1681526020019081526020016000208054905061322e91906142ec565b8154811061323f5761323e614834565b5b9060005260206000200154905061325882600083612abf565b61326c81600161370190919063ffffffff16565b5050565b600080600090507a184f03e93ff9f4daa797ed6e38ed64bf6a1f01000000000000000083106132ce577a184f03e93ff9f4daa797ed6e38ed64bf6a1f01000000000000000083816132c4576132c3614970565b5b0492506040810190505b6d04ee2d6d415b85acef8100000000831061330b576d04ee2d6d415b85acef8100000000838161330157613300614970565b5b0492506020810190505b662386f26fc10000831061333a57662386f26fc1000083816133305761332f614970565b5b0492506010810190505b6305f5e1008310613363576305f5e100838161335957613358614970565b5b0492506008810190505b612710831061338857612710838161337e5761337d614970565b5b0492506004810190505b606483106133ab57606483816133a1576133a0614970565b5b0492506002810190505b600a83106133ba576001810190505b80915050919050565b600080600b60008481526020019081526020016000205490508060a01c915050919050565b6000600b600084815260200190815260200160002054905060a07fffffffffffffffffffffffff0000000000000000000000000000000000000000901c82111561345e576040517ffcb3438c00000000000000000000000000000000000000000000000000000000815260040160405180910390fd5b7fffffffffffffffffffffffff00000000000000000000000000000000000000008260a01b1673ffffffffffffffffffffffffffffffffffffffff821601905080600b600085815260200190815260200160002081905550505050565b6000600b600084815260200190815260200160002054905073ffffffffffffffffffffffffffffffffffffffff82167fffffffffffffffffffffffff0000000000000000000000000000000000000000821601905080600b600085815260200190815260200160002081905550505050565b60008160000160009054906101000a90046fffffffffffffffffffffffffffffffff166fffffffffffffffffffffffffffffffff168260000160109054906101000a90046fffffffffffffffffffffffffffffffff166fffffffffffffffffffffffffffffffff16149050919050565b6000808260000160109054906101000a90046fffffffffffffffffffffffffffffffff1690508260000160009054906101000a90046fffffffffffffffffffffffffffffffff166fffffffffffffffffffffffffffffffff16816fffffffffffffffffffffffffffffffff1603613640576040517f75e52f4f00000000000000000000000000000000000000000000000000000000815260040160405180910390fd5b80600190039050826001016000826fffffffffffffffffffffffffffffffff166fffffffffffffffffffffffffffffffff168152602001908152602001600020549150826001016000826fffffffffffffffffffffffffffffffff166fffffffffffffffffffffffffffffffff16815260200190815260200160002060009055808360000160106101000a8154816fffffffffffffffffffffffffffffffff02191690836fffffffffffffffffffffffffffffffff16021790555050919050565b600060018360000160009054906101000a90046fffffffffffffffffffffffffffffffff160390508260000160109054906101000a90046fffffffffffffffffffffffffffffffff166fffffffffffffffffffffffffffffffff16816fffffffffffffffffffffffffffffffff16036137a6576040517f8acb5f2700000000000000000000000000000000000000000000000000000000815260040160405180910390fd5b81836001016000836fffffffffffffffffffffffffffffffff166fffffffffffffffffffffffffffffffff16815260200190815260200160002081905550808360000160006101000a8154816fffffffffffffffffffffffffffffffff02191690836fffffffffffffffffffffffffffffffff160217905550505050565b6000604051905090565b600080fd5b600080fd5b60007fffffffff0000000000000000000000000000000000000000000000000000000082169050919050565b61386d81613838565b811461387857600080fd5b50565b60008135905061388a81613864565b92915050565b6000602082840312156138a6576138a561382e565b5b60006138b48482850161387b565b91505092915050565b60008115159050919050565b6138d2816138bd565b82525050565b60006020820190506138ed60008301846138c9565b92915050565b600073ffffffffffffffffffffffffffffffffffffffff82169050919050565b600061391e826138f3565b9050919050565b61392e81613913565b811461393957600080fd5b50565b60008135905061394b81613925565b92915050565b6000602082840312156139675761396661382e565b5b60006139758482850161393c565b91505092915050565b6000819050919050565b6139918161397e565b82525050565b60006020820190506139ac6000830184613988565b92915050565b600081519050919050565b600082825260208201905092915050565b60005b838110156139ec5780820151818401526020810190506139d1565b60008484015250505050565b6000601f19601f8301169050919050565b6000613a14826139b2565b613a1e81856139bd565b9350613a2e8185602086016139ce565b613a37816139f8565b840191505092915050565b60006020820190508181036000830152613a5c8184613a09565b905092915050565b613a6d8161397e565b8114613a7857600080fd5b50565b600081359050613a8a81613a64565b92915050565b600060208284031215613aa657613aa561382e565b5b6000613ab484828501613a7b565b91505092915050565b613ac681613913565b82525050565b6000602082019050613ae16000830184613abd565b92915050565b60008060408385031215613afe57613afd61382e565b5b6000613b0c8582860161393c565b9250506020613b1d85828601613a7b565b9150509250929050565b600080600060608486031215613b4057613b3f61382e565b5b6000613b4e8682870161393c565b9350506020613b5f8682870161393c565b9250506040613b7086828701613a7b565b9150509250925092565b600060ff82169050919050565b613b9081613b7a565b82525050565b6000602082019050613bab6000830184613b87565b92915050565b6000819050919050565b613bc481613bb1565b82525050565b6000602082019050613bdf6000830184613bbb565b92915050565b613bee816138bd565b8114613bf957600080fd5b50565b600081359050613c0b81613be5565b92915050565b600060208284031215613c2757613c2661382e565b5b6000613c3584828501613bfc565b91505092915050565b60008060408385031215613c5557613c5461382e565b5b6000613c638582860161393c565b9250506020613c7485828601613bfc565b9150509250929050565b600081519050919050565b600082825260208201905092915050565b6000819050602082019050919050565b613cb38161397e565b82525050565b6000613cc58383613caa565b60208301905092915050565b6000602082019050919050565b6000613ce982613c7e565b613cf38185613c89565b9350613cfe83613c9a565b8060005b83811015613d2f578151613d168882613cb9565b9750613d2183613cd1565b925050600181019050613d02565b5085935050505092915050565b60006020820190508181036000830152613d568184613cde565b905092915050565b600080fd5b600080fd5b7f4e487b7100000000000000000000000000000000000000000000000000000000600052604160045260246000fd5b613da0826139f8565b810181811067ffffffffffffffff82111715613dbf57613dbe613d68565b5b80604052505050565b6000613dd2613824565b9050613dde8282613d97565b919050565b600067ffffffffffffffff821115613dfe57613dfd613d68565b5b613e07826139f8565b9050602081019050919050565b82818337600083830152505050565b6000613e36613e3184613de3565b613dc8565b905082815260208101848484011115613e5257613e51613d63565b5b613e5d848285613e14565b509392505050565b600082601f830112613e7a57613e79613d5e565b5b8135613e8a848260208601613e23565b91505092915050565b60008060008060808587031215613ead57613eac61382e565b5b6000613ebb8782880161393c565b9450506020613ecc8782880161393c565b9350506040613edd87828801613a7b565b925050606085013567ffffffffffffffff811115613efe57613efd613833565b5b613f0a87828801613e65565b91505092959194509250565b613f1f81613b7a565b8114613f2a57600080fd5b50565b600081359050613f3c81613f16565b92915050565b613f4b81613bb1565b8114613f5657600080fd5b50565b600081359050613f6881613f42565b92915050565b600080600080600080600060e0888a031215613f8d57613f8c61382e565b5b6000613f9b8a828b0161393c565b9750506020613fac8a828b0161393c565b9650506040613fbd8a828b01613a7b565b9550506060613fce8a828b01613a7b565b9450506080613fdf8a828b01613f2d565b93505060a0613ff08a828b01613f59565b92505060c06140018a828b01613f59565b91505092959891949750929550565b600080604083850312156140275761402661382e565b5b60006140358582860161393c565b92505060206140468582860161393c565b9150509250929050565b600067ffffffffffffffff82111561406b5761406a613d68565b5b614074826139f8565b9050602081019050919050565b600061409461408f84614050565b613dc8565b9050828152602081018484840111156140b0576140af613d63565b5b6140bb848285613e14565b509392505050565b600082601f8301126140d8576140d7613d5e565b5b81356140e8848260208601614081565b91505092915050565b6000602082840312156141075761410661382e565b5b600082013567ffffffffffffffff81111561412557614124613833565b5b614131848285016140c3565b91505092915050565b600080604083850312156141515761415061382e565b5b600061415f85828601613a7b565b925050602061417085828601613a7b565b9150509250929050565b7f4e487b7100000000000000000000000000000000000000000000000000000000600052602260045260246000fd5b600060028204905060018216806141c157607f821691505b6020821081036141d4576141d361417a565b5b50919050565b600081519050919050565b600082825260208201905092915050565b6000614201826141da565b61420b81856141e5565b935061421b8185602086016139ce565b614224816139f8565b840191505092915050565b60006080820190506142446000830187613abd565b6142516020830186613abd565b61425e6040830185613988565b818103606083015261427081846141f6565b905095945050505050565b60008151905061428a81613864565b92915050565b6000602082840312156142a6576142a561382e565b5b60006142b48482850161427b565b91505092915050565b7f4e487b7100000000000000000000000000000000000000000000000000000000600052601160045260246000fd5b60006142f78261397e565b91506143028361397e565b925082820390508181111561431a576143196142bd565b5b92915050565b600081905092915050565b60008190508160005260206000209050919050565b6000815461434d816141a9565b6143578186614320565b945060018216600081146143725760018114614387576143ba565b60ff19831686528115158202860193506143ba565b6143908561432b565b60005b838110156143b257815481890152600182019150602081019050614393565b838801955050505b50505092915050565b60006143ce826139b2565b6143d88185614320565b93506143e88185602086016139ce565b80840191505092915050565b7f2e6a736f6e000000000000000000000000000000000000000000000000000000815250565b60006144268285614340565b915061443282846143c3565b915061443d826143f4565b6005820191508190509392505050565b600060c0820190506144626000830189613bbb565b61446f6020830188613abd565b61447c6040830187613abd565b6144896060830186613988565b6144966080830185613988565b6144a360a0830184613988565b979650505050505050565b7f1901000000000000000000000000000000000000000000000000000000000000600082015250565b60006144e4600283614320565b91506144ef826144ae565b600282019050919050565b6000819050919050565b61451561451082613bb1565b6144fa565b82525050565b6000614526826144d7565b91506145328285614504565b6020820191506145428284614504565b6020820191508190509392505050565b60006080820190506145676000830187613bbb565b6145746020830186613b87565b6145816040830185613bbb565b61458e6060830184613bbb565b95945050505050565b60006020601f8301049050919050565b600082821b905092915050565b6000600883026145e47fffffffffffffffffffffffffffffffffffffffffffffffffffffffffffffffff826145a7565b6145ee86836145a7565b95508019841693508086168417925050509392505050565b6000819050919050565b600061462b6146266146218461397e565b614606565b61397e565b9050919050565b6000819050919050565b61464583614610565b61465961465182614632565b8484546145b4565b825550505050565b600090565b61466e614661565b61467981848461463c565b505050565b5b8181101561469d57614692600082614666565b60018101905061467f565b5050565b601f8211156146e2576146b38161432b565b6146bc84614597565b810160208510156146cb578190505b6146df6146d785614597565b83018261467e565b50505b505050565b600082821c905092915050565b6000614705600019846008026146e7565b1980831691505092915050565b600061471e83836146f4565b9150826002028217905092915050565b614737826139b2565b67ffffffffffffffff8111156147505761474f613d68565b5b61475a82546141a9565b6147658282856146a1565b600060209050601f8311600181146147985760008415614786578287015190505b6147908582614712565b8655506147f8565b601f1984166147a68661432b565b60005b828110156147ce578489015182556001820191506020850194506020810190506147a9565b868310156147eb57848901516147e7601f8916826146f4565b8355505b6001600288020188555050505b505050505050565b600061480b8261397e565b91506148168361397e565b925082820190508082111561482e5761482d6142bd565b5b92915050565b7f4e487b7100000000000000000000000000000000000000000000000000000000600052603260045260246000fd5b600081905092915050565b60008190508160005260206000209050919050565b60008154614890816141a9565b61489a8186614863565b945060018216600081146148b557600181146148ca576148fd565b60ff19831686528115158202860193506148fd565b6148d38561486e565b60005b838110156148f5578154818901526001820191506020810190506148d6565b838801955050505b50505092915050565b60006149128284614883565b915081905092915050565b600060a0820190506149326000830188613bbb565b61493f6020830187613bbb565b61494c6040830186613bbb565b6149596060830185613988565b6149666080830184613abd565b9695505050505050565b7f4e487b7100000000000000000000000000000000000000000000000000000000600052601260045260246000fd5b60006149aa8261397e565b91506149b58361397e565b9250826149c5576149c4614970565b5b828204905092915050565b7f4e487b7100000000000000000000000000000000000000000000000000000000600052603160045260246000fd5b6000614a0a8261397e565b91507fffffffffffffffffffffffffffffffffffffffffffffffffffffffffffffffff8203614a3c57614a3b6142bd565b5b60018201905091905056fea2646970667358221220caf183efad61d7a383ae950aa05d6c77d70392dd3407ed3a6bafc21f37db286b64736f6c63430008180033",
  "linkReferences": {},
  "deployedLinkReferences": {}
}